:020000040800F2
:10000000F00D0020B90200089F360008232A0008DE
:100010009B3600086D200008054E00080000000017
:10002000000000000000000000000000354700084C
:1000300099220008000000001D46000895480008AD
:10004000D3020008D3020008D3020008D30200083C
:10005000D3020008D3020008012700083527000852
:10006000D3020008D3020008D3020008D30200081C
:10007000D3020008D3020008D3020008D30200080C
:10008000D3020008D3020008D3020008D3020008FC
:10009000D3020008D3020008D3020008D3020008EC
:1000A000D3020008D3020008D3020008D3020008DC
:1000B000F9480008414A0008D3020008D3020008AA
:1000C000D3020008D3020008D3020008D3020008BC
:1000D000D3020008D94B0008F54B0008D3020008F2
:1000E000D3020008D3020008D3020008D30200089C
:1000F000D3020008D3020008D3020008D30200088C
:10010000D3020008D3020008D3020008D30200087B
:10011000D3020008D3020008D3020008D30200086B
:10012000D3020008D3020008D3020008D30200085B
:1001300000F002F800F096F80AA090E8000C824463
:100140008344AAF10107DA4501D100F08BF8AFF240
:10015000090EBAE80F0013F0010F18BFFB1A43F0A5
:1001600001031847149D0000349D0000103A24BF7D
:1001700078C878C1FAD8520724BF30C830C144BF0C
:1001800004680C607047000000230024002500264E
:10019000103A28BF78C1FBD8520728BF30C148BFEA
:1001A0000B6070476E2900F09585702900F003827E
:1001B000662907F0F384652907F0F084672907F0C2
:1001C000ED846129AFF3008003681B0A28BF41F06A
:1001D0008001692900F07481642900F0718175291A
:1001E00000F06E816F2901F09280782900F0CF81B4
:1001F000E92901F02D80E42901F02A80F52901F098
:100200002780EF2901F08F80F82900F0CE81036864
:10021000DB0928BF41F08001632900F0AE87732914
:1002200000F0B387E32901F07381F32901F07881AD
:10023000002070471FB59DE8030000F09FFC00F010
:10024000ACFA01F0B7F804000020002106F0C6FC6B
:10025000401C60600020002106F0D6FCE0601FBD5D
:1002600010B510BD01F04AFA1146FFF7E3FF05F0A3
:100270003BF901F076FA03B4FFF7F2FF03BC01F09B
:10028000A7FA00000B49D1F800C04A685CF8043BAB
:100290001068184442F8040B8C4528BFA1F1DC0C0F
:1002A0008A4228BFA1F1DC02C1F800C04A6020F0F8
:1002B00000407047840700200948804709480047EC
:1002C000FEE7FEE7FEE7FEE7FEE7FEE7FEE7FEE706
:1002D000FEE7FEE704480549054A064B7047000063
:1002E0009948000831010008F0070020F00D0020B7
:1002F000F0090020F009002070B5064600F01EFC51
:10030000056806F10B0020F00704B4429CBF0020F2
:1003100070BD2B466A68BAB11068A04210D304F1D0
:10032000080188423CBF5068586007D351681019D3
:1003300041601168091B016058601460101D70BD98
:1003400013465268002AE7D12146284600F002FCF5
:100350000028DED170BD70B50446051F00F0EEFB2D
:100360000068002C14BF446870BD002C18BFAC425C
:100370003CBF20466468F8D301680A18AA4218BF37
:10038000456003D12A680546114401602868411977
:10039000A1421CBF6C6070BD61686960216808443F
:1003A000286070BD10B5044600F0C0FB0068005D19
:1003B000C00602D504F1200010BD204610BD00008B
:1003C0007CB51D4616460C00009001D02044401E0E
:1003D000074B7B442A4669460190304600F0A3FE55
:1003E00005461CB10020694600F0B0FE28467CBDE1
:1003F000810D00000FB41CB5084B06AA7B4469466A
:100400000090059800F08FFE04460020694600F039
:100410009DFE20461CBC5DF814FB00004D0D000045
:1004200070B5044685690068C10601D5302600E034
:100430002026C00707D070BDD4E90121304690477F
:10044000206A401C20626D1EF6D570BD70B5044652
:1004500085690078C00707D170BDD4E9012120204B
:100460009047206A401C20626D1EF6D570BD70B5A5
:100470000C460546012A05D02878800600D5EA6991
:10048000002302E0012305E05B1C934202D2E05C02
:100490000028F9D1A869E618C01AA861286A18448A
:1004A00028622846FFF7BCFF04E0D5E9012114F8D3
:1004B000010B9047B442F8D32846FFF7C7FF70BD41
:1004C0002DE9F0410646002410687529314616A52D
:1004D00010D000F094FB002802DA404213A507E098
:1004E00031688A0701D512A502E0490704D511A594
:1004F000012401E000F08CFB00210A2206F1240710
:1005000009E0B0FBF2FCB0FBF2F302FB1C00303060
:1005100078541846491C0028F3D123462A46304611
:10052000BDE8F04100F07DBB000000002D000000A0
:100530002B00000020000000F0B40D4601880905E2
:1005400002D5214C7C4402E01F4C7C440E34002137
:1005500000F1240608E002F00F071209E75D42EA05
:1005600003721B097754491C52EA0307F3D102783E
:100570000023120704D5702D06D009B102231134CF
:100580002246F0BC00F04DBB01231034F8E770B5F3
:1005900004460D462146106800F03AFB0246294603
:1005A0002046BDE870400023C6E7D21D22F00703B5
:1005B000D3E90023C0E70368126843F02003036017
:1005C0000823C3610023B7E7B39700002DE9F05F6C
:1005D000894604464FF0000ADFF874B1FB44C0F8C6
:1005E00020A02046E1688847002874D0252806D03E
:1005F000D4E901219047206A401C2062F1E70026DF
:100600005F462046E16888472028054607DB312DF4
:1006100005D2781910F8200C08B10643F1E7B007AD
:1006200001D526F00406C4F81CA00027C4F818A0C1
:100630002A2D09D0284604F05BFD38B304EB870867
:10064000303DC8F8185019E059F8041B204604EB57
:1006500087029161E1688847012F054618D1E0695A
:10066000002820DA26F020061DE0D8F8180000EB5C
:10067000800005EB40003038C8F818002046E168DB
:100680008847054604F034FD0028EED1012F0AD03A
:100690002E2D08D12046E16888477F1C0546022F91
:1006A00046F02006C4DBA069002803DA404246F089
:1006B0000106A061F00701D026F010066C2D0BD0CA
:1006C000682D09D04C2D39D06A2D35D0742D35D0F8
:1006D0007A2D33D016E038E0E1682F46204688476F
:1006E000B842054609D16C2F26D04FF48060E168EE
:1006F000064320468847054604E06C2F1AD04FF485
:10070000807006430DB3A5F14100192802D82035A9
:1007100046F400664A462946204626604E46FFF7C4
:1007200041FD80B101280BD0F61D26F0070000F135
:10073000080956E74020E4E78020D8E70020D6E704
:1007400006F104094DE7284652E7206ABDE8F09F0C
:100750004397000070B5064600F0F4F904680546BA
:1007600030460A22002100F0E9FD2C6070BD000037
:100770000B4910B5A1F17C020A4CC2E937123721AE
:1007800006E000EB104342F82130074B00FB03402A
:100790000B1EA1F10101F4DC10BD0120E8E700000F
:1007A00024070020E119D666CD0D0100401ECAB213
:1007B00010F8011F8A4202D00029F9D100207047A9
:1007C00010B5431E13F8014F002CFBD105E011F8C2
:1007D000014B002C03F8014B03D0521EF7D200212D
:1007E000197010BD30B505460B462A4613F8014B6B
:1007F00012F8010B08B1A042F8D01CB1002802D0B9
:100800006D1CF1E7284630BD40EA0103024630B5D1
:100810009B0710D14FF0013400E008C208C91D1B2E
:100820009D4315EAC41FF8D013F0FF0102F8011B25
:100830000DD01B0AF8E711F8013B002B02F8013B31
:1008400005D011F8013B002B02F8013BF3D130BD7C
:1008500010B5431C02E010F8011B71B18107FAD1F9
:100860004FF0013202C88C1A8C4314EAC211F9D03D
:10087000C01A0A0603D0C01E10BDC01A10BD0A045B
:1008800001D0801E10BD0902FCD0401E10BD40EA00
:10089000010370B59B072ED14FF00136042A2AD3ED
:1008A00008C810C99D1B9D43121F15EAC61517D015
:1008B000D8B2E1B2401A50EA056110D198B2A1B2A3
:1008C000401A50EA05410AD123F07F4024F07F41CD
:1008D000401A50EA052102D1180EA0EB146070BD39
:1008E000A342DBD018BA21BA884201D9012070BDD9
:1008F0004FF0FF3070BD0AB9002070BD10F8013B09
:1009000011F8014B63B1A3420AD1521E08D010F86E
:10091000013B11F8014B1BB1A34201D1521EEDD195
:10092000181B70BD032A40F2308010F0030C00F059
:10093000158011F8013BBCF1020F624498BF11F819
:1009400001CB00F8013B38BF11F8013BA2F10402D2
:1009500098BF00F801CB38BF00F8013B11F003034A
:1009600000F02580083AC0F0088051F8043B083AAE
:1009700051F804CBA0E80810F5E7121D5CBF51F850
:10098000043B40F8043BAFF30080D20724BF11F8CA
:10099000013B11F801CB48BF11F8012B24BF00F82F
:1009A000013B00F801CB48BF00F8012B704710B5A0
:1009B000203AC0F00B80B1E81850203AA0E8185057
:1009C000B1E81850A0E81850BFF4F5AF5FEA027C18
:1009D00024BFB1E81850A0E8185044BF18C918C087
:1009E000BDE810405FEA827C24BF51F8043B40F828
:1009F000043B08BF7047D20728BF31F8023B48BF0D
:100A000011F8012B28BF20F8023B48BF00F8012B4A
:100A100070474FF000020429C0F0128010F0030C60
:100A200000F01B80CCF1040CBCF1020F18BF00F8E1
:100A3000012BA8BF20F8022BA1EB0C0100F00DB890
:100A40005FEAC17C24BF00F8012B00F8012B48BFEE
:100A500000F8012B70474FF0000200B51346944692
:100A60009646203922BFA0E80C50A0E80C50B1F106
:100A70002001BFF4F7AF090728BFA0E80C5048BF1A
:100A80000CC05DF804EB890028BF40F8042B08BFB8
:100A9000704748BF20F8022B11F0804F18BF00F8B4
:100AA000012B70474FF0013C50F8042B51F8043BE8
:100AB0009A4221D1A2EB0C03934313EACC1317D132
:100AC00050F8042B51F8043B9A4215D1A2EB0C03C9
:100AD000934313EACC130BD150F8042B51F8043B89
:100AE0009A4209D1A2EB0C03934313EACC13DBD057
:100AF0004FF00000704700BFD01A01BAB1FA81F17F
:100B000001F0180122FA01F0CB40C1F12001DBB263
:100B1000C0B2C01A2CFA01F3D11A914311EAC311E1
:100B2000E6D17047704770477047000010B500F07D
:100B300041FC001D10BD00BFA560000000487047CB
:100B400094070020004870478C07002070477047CA
:100B50007047704738B504460A4600206946AFF32F
:100B60000080002808BF38BD02460099204600F0EA
:100B700025FC012038BD012000F0B8BDF8B5AFF369
:100B80000080054600200C46102000BF0646A8192C
:100B9000A0420DD9324669460020AFF3008007001D
:100BA00008BF00F0A3FD0098A04218BF0546C41975
:100BB000FFF7C4FF05600746F01D20F00700461947
:100BC000284600F00AF8B44208BFF8BDA21B31461F
:100BD0003868BDE8F84000F0F1BB00210160C0E9D1
:100BE000011070471020704710B5FFF7ABFF006889
:100BF00010BD10B50446FFF7A5FF046010BD0968DD
:100C00004A0501D540B27047C905FCD500B270470E
:100C100009684A0501D5C0B27047C905FCD580B244
:100C200070472DE9F0470D4699469246044600F17B
:100C300024080168880604D5E06921F010012160CC
:100C400000E00120A84201DD471B00E00027A16968
:100C50007A1902EB0900081AA0612078C00602D4B4
:100C60002046FFF7DDFB002608E0D4E901211AF851
:100C700006009047206A401C761C20624E45F4DB3B
:100C80002078C0060AD52046FFF7CAFB06E0D4E963
:100C9000012130209047206A401C2062381EA7F1B5
:100CA0000107F4DC07E0D4E9012118F805009047BA
:100CB000206A401C2062281EA5F10105F3DC2046B5
:100CC000FFF7C4FB2078000602D50220BDE8F087BC
:100CD0000120FBE711680268006A530501D508701E
:100CE0000AE0D30501D5088006E0130603D5C21734
:100CF000C1E9000200E008600120704770472DE95B
:100D0000FF4F0C461E464FF0FF378BB0D2E9000173
:100D1000DDF860800A908A46C1F30A5505B93D4660
:100D2000002108464FF00000BAF1000F00F4400027
:100D300005DA00EB80004FF4400101EA50004FEA71
:100D40009059B9F1010F00DDB9460A9850EA4A00FE
:100D50000ED044F61050A5F2FF3545432F14B8F1DC
:100D6000000F1ED07542291E1EDDC9F100021CE0D5
:100D7000B8F1010F4FF0000001D0302103E0F24341
:100D800005E02154401CB042FBDB3046002200212C
:100D900021540B99C1F80880C1E900200FB0BDE8CB
:100DA000F08FBD1B6D1CDEE74A4600DA694206A8DB
:100DB00000F00AFC06AB93E8070003AB83E80700EA
:100DC00050460A9900F02AFD8DE80700A0F5005072
:100DD0001F3800900398002D0ADD42F21F014A4699
:100DE0000844002303A90390684600F093FF09E03C
:100DF000A0F500504A461F38002303A90390684617
:100E000000F09DFF8DE807000004000C03D04FF0B8
:100E1000FF30410800E01046B8F1000F03D0002277
:100E2000009215461EE0751E05D400F0E1FA30323E
:100E300062556D1EF9D5B3460122084302D0002247
:100E40007F1C04E02078302801D100227F1E002A78
:100E5000099784D01DE0112D07DA00F0C9FA30326D
:100E600062556D1C50EA0102F5D1084302D000988A
:100E7000C8B10EE00021681E05E0235C625C63548B
:100E80002254401E491C8142F7DBAB46A81B401E82
:100E90000990002004F80B000B98099AC0F808800C
:100EA000C0E9002B7AE711264FF0000857E72DE93B
:100EB000F04F88460446D21D22F0070191B0D1E9D7
:100EC0000001CDE90A0104F08AF802460B98C00F30
:100ED00001D02D2007E02068810701D52B2002E0FA
:100EE000202101EAC000032A099001D0072A05DB6E
:100EF00003464146204600F0C1FA0BE12078800607
:100F000001D5E06900E00620B8F1650F814606D002
:100F1000B8F1660F18D0B8F1670F70D131E000203A
:100F2000B9F1110F009001DB112301E009F1010378
:100F30000AAA01A90CA8FFF7E2FEDDE90C70002661
:100F400009F10105834647E001204B4600904FF030
:100F500000470AAA01A90CA8FFF7D1FEDDE90DB0F0
:100F60000C995D46002610B909F101000D18B9EB86
:100F7000050003D4C0F1FF3609F10105A5EB090016
:100F80002BE0B9F1010F01DA4FF001090020B9F1AE
:100F9000110F0090484601DD112300E003460AAA24
:100FA00001A90CA8FFF7ABFEDDE90C704D46002649
:100FB0008346207800070AD4AB4500DA5D4601A8D5
:100FC000012D04DD411911F8011C302907D04F45CE
:100FD00002DA17F1040F04DA012082460FE06D1ED9
:100FE000EEE7002F02DCED1B3E4403E0781CA84234
:100FF00000DD7D1CB81B00F1010A4FF0004720788E
:10100000000703D4AA4501DB4FF0FF3A0021B7F1F6
:10101000004F0DF143088DF8431024D002202B23FC
:10102000002F01DA7F422D230A21021EA0F10100C8
:1010300000DC5FB197FBF1FC97FBF1F201FB1C7C3C
:1010400017460CF1300C08F801CDEEE7A8F10100CD
:1010500003702188090501D5452100E06521A0F133
:10106000010800F8011C09980FA9A1EB0807FF1D52
:1010700000B10120411901EBEA70A1693844081A56
:10108000401EA0612078C00602D42046FFF7C8F9B0
:10109000099828B1D4E901219047206A401C2062B8
:1010A0002078C00622D52046FFF7BAF91EE0002EB0
:1010B00004DBB34502DD01A8805D00E03020D4E907
:1010C00001219047206A401C2062761CAAF1010091
:1010D0005FEA000A0AD100F06DF9C0680168405C5F
:1010E000D4E901219047206A401C2062281EA5F106
:1010F0000105DCDC07E0D4E9012118F8010B904779
:10110000206A401C2062381EA7F10107F3DC20464C
:10111000FFF79CF9032011B041E6000001694A1C69
:1011200002610878704700B58FB0CDE90131002128
:10113000059105497944CDE9031011466846FFF74A
:1011400045FA0FB000BD0000E5FFFFFF0A6802F896
:10115000010B0A607047D1E900239A4202D2531C66
:101160000B601070704710B5436913B1AFF3008086
:1011700001E0FFF77CF9012010BD127800F1240195
:101180000A7000224A700122EDE711684FF0FF3229
:10119000E9E700002DE9FF5F15468A460446DFF8BF
:1011A000AC80F8440027D8E900103E46CDE9001095
:1011B00010E03AF816106A4602A800F077FA411CCF
:1011C00007D02178890603D5E269391891420DD8F4
:1011D0000744761C2078800602D5E069B84205DD18
:1011E000AE42E6DB3AF816000028E2D1A069C01B47
:1011F000A0612046FFF714F9D8E90010CDE90010EE
:10120000002017E03AF818106A4602A800F04EFADB
:10121000B0F1FF3F81460BD000250DF1080B05E032
:10122000D4E901211BF8050090476D1C4D45F7D30B
:1012300008F10100B0428046E4DB206A38442062B5
:101240002046FFF703F9BDE8FF9F00001A8C00005D
:101250002DE9F0418046D21D22F007020025D2E997
:101260000002F52915A614D0011E72F1000106DA5C
:101270000023D0EB030063EB020211A608E0D8F8CC
:1012800000108B0701D50FA602E0490701D50EA675
:1012900001251146002408F1240704E000F0A8F815
:1012A00030323A55641C50EA0102F7D12B463246DF
:1012B00021464046BDE8F041FFF7B3BC0000000006
:1012C0002D0000002B0000002000000030B40021A1
:1012D00000F1240408E002F00705D208303542EAA4
:1012E0004372DB086554491C52EA0305F3D10468D4
:1012F000002310A2250707D5A40600D421B1C46994
:1013000001230DA2641EC46130BCFFF78ABC10B576
:10131000044621461068FFF77BFC02462046BDE8E4
:1013200010400023D2E7D21D22F00701D1E90023AB
:10133000CCE7000000000000300000002DE9F0477D
:1013400091460F4680460446002614F8015B2DB1F5
:10135000FFF7ECFB0068405DC007F6D12B2D02D0F3
:101360002D2D18D0641E4A463946204600F0DCF880
:1013700027B13968A14201D1C7F800804FF00204BB
:1013800071050BD54042002803DDFFF7DBFB04604D
:10139000A007BDE8F08746F48066E4E70028F8DAA5
:1013A000FFF7D0FB04606FF00040F2E700487047A1
:1013B0008C07002000487047AC07002003464068B7
:1013C0008C46002818BF88423CBF03464068F8D3CB
:1013D00018681844884207D00CF1030020F0070079
:1013E000001D411A521A0146081D0A60FEF7B3BFDC
:1013F00030B5B0F10A024FEA900E71F100034EEAE7
:10140000817EB0EB0E0061EB91014FEA101E4EEAB7
:10141000017E10EB0E0041EB11114FEA102E4EEA47
:10142000016E10EB0E0041EB11214FEA104E4EEA17
:10143000014E10EB0E0041EB1141401841F100014B
:101440004FEAD00040EA41704FEAD10110EB80052D
:101450004FEA810444EA907444EB01046D1944EBB3
:101460000404521BA3414FF0000348BF0A3200D5C9
:1014700030BD401C41F1000130BD00002DE9F041BC
:101480001F46044603260168072A01F4006004DBB6
:1014900008B116A505E016A503E008B115A500E002
:1014A00015A521F010002060A069C01EA0610FB139
:1014B000401EA0612046FEF7B3FF4FB1D4E90121E1
:1014C00038469047206A401C2062C01C206206E01B
:1014D000206AFAE7D4E9012115F8010B9047761E3E
:1014E000F8D22046FEF7B2FFBDE8F0814E414E0033
:1014F0006E616E00494E4600696E660010B5436924
:1015000013B1AFF3008001E0FFF744FE012010BDEE
:10151000128800F1240182840022C2840122EDE7B6
:1015200011684FF0FF32E9E72DE9F05F824615467A
:101530008B4600270AF10104B9460078302801D013
:101540009DB113E014F8010B0127782803D0582827
:1015500001D045B10AE00DB1102D07D1002714F8D4
:10156000010B102502E0082500E00A250026B04600
:101570000EE005FB080005FB06F101271FFA80F8C5
:1015800001EB1046B6F5803F00D3B94614F8010BC5
:10159000294600F0D8F80028EBDABBF1000F05D09F
:1015A0000FB1641E00E05446CBF80040B9F1000FC3
:1015B00006D0FFF7C7FA02210160C81EBDE8F09F00
:1015C00048EA0640FAE700002DE9F0478146164652
:1015D0008AB0354878440DC88DE80D00324878440B
:1015E000801C03AC0DC884E80D0041F69B30084414
:1015F000372190FBF1F290FBF1F5A5F1800501FB9D
:1016000012041B3C02D56442012000E00020DFF8F8
:1016100098A080460027FA44AAF1BE0A0EE0E0072F
:101620000AD03246684607EB470101230AEB8101E5
:1016300000F085FB8DE8070064107F1C002CEED1C4
:10164000194F7F44AE3F19E0E80715D007EB0410AF
:101650000DF1180A90E80E008AE80E00C068F0420A
:1016600001D1981908903246012306A903A800F079
:1016700066FB03AB83E807006D10641C002DE3D10B
:101680004FF0010332466946B8F1000F03A802D0BB
:1016900000F040FB01E000F052FBC9E90001C9F88D
:1016A00008200AB0BDE8F0877488000070B51646BF
:1016B0000C460546FFF73AFA036893F80101012842
:1016C00006D0FF2C0FD8185D68B101202C7070BDBA
:1016D000D3F807013246214603F207130344284694
:1016E000BDE8704018474FF0FF3070BD10B500F0F6
:1016F00047F8BDE8104000F03DB870477546FFF769
:1017000055FEAE4605006946534620F00700854663
:1017100018B020B5FEF7DEFDBDE820404FF0000612
:101720004FF000074FF000084FF0000B21F00701C9
:10173000AC46ACE8C009ACE8C009ACE8C009ACE80C
:10174000C0098D4670473A2800D2303820F0200278
:10175000412A01D3A2F13700884201D34FF0FF3074
:10176000704710B50446AFF300802046BDE8104036
:10177000FEF781BD002801D000F02AB870470000B4
:1017800010B5012805D0002103A000F027F80120A2
:1017900010BD09A1F8E7000053494752544D454D8B
:1017A0003A204F7574206F662068656170206D6502
:1017B0006D6F7279000000003A2048656170206DFD
:1017C000656D6F727920636F7272757074656400F5
:1017D00001491820ABBEFEE72600020070B50546A1
:1017E0000C460A2000E06D1C00F011F835B1287895
:1017F0000028F8D102E0641C00F009F814B1207848
:101800000028F8D1BDE870400A20AFF3008008B589
:1018100069468DF800000320ABBE08BD5FEA400CAE
:1018200008BF91F0000F4FEA8C234FEAC12243EA30
:1018300051514FEA1C5018BF00F5F0404FEA3000FC
:1018400018BF41F000415FEA6C5C00F02980BCF1F8
:10185000FF3F08BF40F080407047130C06BF1204E2
:101860004FF0100C4FF0000C130E04BF12020CF1DD
:10187000080C130F04BF12010CF1040C930F04BFEA
:1018800092000CF1020CD30F04BF52000CF1010CBA
:1018900011464FF00002A0F11F00A0EB0C007047B2
:1018A00011F0004F08BF704731F000413FF4D5AF51
:1018B0000B0C06BF09044FF0100C4FF0000C0B0E80
:1018C00004BF09020CF1080C0B0F04BF09010CF155
:1018D000040C8B0F04BF89000CF1020CCB0F04BF6A
:1018E00049000CF1010CCCF12003A0EB0C0022FA12
:1018F00003F302FA0CF241EA030100F10100704720
:1019000020F07F4C80EA030023F07F47ACEB070315
:1019100003F57C5300F0004003F1FF032DE98049FB
:101920004FEA154B09B44FEA144325EA0B4E24EA5B
:1019300003480FF2042606EB132749083E785FEAB6
:10194000320203FB0667C7F5000707FB06F64FEAFE
:1019500054374FEAD64606F1020607FB066CCCF177
:10196000005C4FEA1C472CEA074C07FB06F40CFB13
:1019700006F504EB15464FEA961634BF00204FF0EB
:1019800000404FEAD13706FB07FC4FEA1C4C0CFB2A
:101990000BF7D21B03FB0CF761EB07010CFB0EF7F7
:1019A000B0EB074072EB17420CFB08F734BFA2EB19
:1019B0000742B2EB074261EB17414FEA0C444FEA92
:1019C000910706FB07FC4FEA1C4C0CFB0BF7B0EB36
:1019D000C74072EB573203FB0CF734BFA2EBC74290
:1019E000B2EBC74261EB57310CFB0EF7B0EBC7000F
:1019F00072EB57720CFB08F734BFA2EBC702B2EBD5
:101A0000C70261EB5771039F4FEA816141EA92116E
:101A100004EBCC044FEAD1374FEA826206FB07FCA5
:101A200042EA90124FEA80604FEA1C4C0CFB0BF725
:101A3000D21B03FB0CF761EB07010CFB0EF7B0EBBD
:101A4000074072EB17420CFB08F734BFA2EB0742CA
:101A5000B2EB074261EB17414FEA8C554FEA910711
:101A600004EB9C2406FB07FC4FEA1C4C0CFB0BF719
:101A7000B0EBC74072EB573203FB0CF734BFA2EB5D
:101A8000C742B2EBC74261EB57310CFB0EF7B0EB2C
:101A9000C70072EB57720CFB08F734BFA2EBC7020A
:101AA000B2EBC70261EB577115EB4C254FEA816130
:101AB00041EA92114FEA82624FEAD13742EA90122C
:101AC00006FB07FC44F100044FEA80604FEA1C4C1F
:101AD0000CFB0BF7D21B03FB0CF761EB07010CFBB4
:101AE0000EF7B0EB074072EB17420CFB08F734BF60
:101AF000A2EB0742B2EB074261EB174115EB1C1555
:101B00004FEA813141EA92414FEA823242EA904201
:101B10004FEA80304FEA0C7644F1000448EA034370
:101B20004EEA0B484FF0000EB2EB080C71EB0307C6
:101B300024BF624639464EEB0E0E4FF0000B0018E4
:101B4000524149414BEB0B0BB2EB080C71EB030715
:101B50007BF1000B24BF624639464EEB0E0E4FF070
:101B6000000B0018524149414BEB0B0BB2EB080C38
:101B700071EB03077BF1000B24BF624639464EEB45
:101B80000E0E51EA020718BF46F0010616EB0E765C
:101B900055F1000254F1000103D5BDE88901BDE80B
:101BA0000088BDE88901BDE80048B619524141EB03
:101BB0000101A3F10103704780807F7E7D7C7B7AE9
:101BC0007978777676757473727171706F6E6E6DE9
:101BD0006C6C6B6A6A69686867666665646463638F
:101BE00062616160605F5F5E5E5D5D5C5C5B5B5A15
:101BF0005A59595858575756565555555454535382
:101C000052525251515050504F4F4F4E4E4D4D4DDC
:101C10004C4C4C4B4B4B4A4A4A4949494848484727
:101C20004747474646464545454444444443434365
:101C30004342424242414141002B9C4630D477000E
:101C40002BD01CB54FEA370703B44FF010004FF00C
:101C50001001BAF1000F06D0BCF1000FDCBF40F05C
:101C6000080040F008014FF000000FBCBDE8104034
:101C70000BF1010BBBF1010F08BF5FEA170722BF91
:101C800012F1010211F101014FF0004143F1000393
:101C900000F0004043EA00007047F9D35708D0E74E
:101CA00046EA064613F1400F4FEA16461FDD13F1D0
:101CB000200FDFBF16430A46002120335B42BED00F
:101CC000C3F1200746EA064602FA07F74FEA16462E
:101CD00046EA0706C3F1200722FA03F201FA07F7E2
:101CE00021FA03F14FF0000342EA0702A7E746EAB0
:101CF000020646EA06464FEA164646EA0106BCBF19
:101D000046EA0646360C4FF000034FF000024FF053
:101D1000000194E72DE9804C9A46934670B491E80F
:101D2000380007C831EA400C48BF34EA430C03D5F9
:101D3000FFF7E6FDFFF780FFF0BCBDE8008C2DE962
:101D4000804C9A46934670B491E8380007C810F06A
:101D5000804F08BF13F0804F03D100F005F8FFF764
:101D60006BFFF0BCBDE8008C20F07F4780EA0300E9
:101D700023F07F4C07EB0C03A3F57C5300F00040ED
:101D8000A3F1FE0392F0000F00F0B38095F0000F76
:101D900000F077802DE901494FEA11404FEA1446DF
:101DA00021EA004800FB06FC24EA064708FB06F689
:101DB00007FB08F800FB07F718EB06484CEB164C3E
:101DC0004FEA124B18EB07484FEA15464CEB174009
:101DD00022EA0B4E0BFB06FC25EA06470EFB06F635
:101DE00007FB0EFE0BFB07F71EEB064E4CEB164CEB
:101DF0004FF000061EEB074E4CEB174B18EB0B0891
:101E000040F1000018EB0E0B58EB000840F1000009
:101E10008F1A4FF000013CBFC943661B14BFB5EBDE
:101E2000040C00213CBFC943F61B4FEA17444EEA9D
:101E30008E0E27EA04454FEA1C4704FB07622CEA92
:101E4000074C05FB07F70CFB05F604FB0CFC16EB37
:101E5000074642EB174216EB0C4642EB1C421BEBCB
:101E6000060658EB0202414146EA9E0601D5BDE84E
:101E70000189B619524141EB0101A3F10103BDE80B
:101E800001894FEA14454FEA114724EA054621EA41
:101E9000074C05FB07F406FB07F70CFB06F105FBF7
:101EA0000CFC11EB074144EB17444FEA124711EBCE
:101EB0000C4144EB1C4422EA074C05FB07F206FBED
:101EC00007F70CFB06F605FB0CFC16EB074642EB8E
:101ED000174216EB0C4642EB1C456A1854F1000100
:101EE00048BF7047B619524141EB0101A3F101030C
:101EF000704795F0000F37D04FEA11424FEA144770
:101F000021EA024624EA074C02FB07F106FB07F729
:101F10000CFB06F402FB0CFC14EB074441EB1741ED
:101F20004FEA154714EB0C4441EB1C4125EA074CE2
:101F300002FB07F506FB07F70CFB06F602FB0CFCA1
:101F400016EB074645EB174516EB0C4645EB1C42D6
:101F5000121951F1000148BF7047B619524141EBC7
:101F60000101A3F1010370474FEA14454FEA1147FD
:101F700024EA054621EA074C05FB07F106FB07F7B3
:101F80000CFB06F24FF0000605FB0CFC12EB0742BF
:101F900041EB174112EB0C4251EB1C4148BF70471B
:101FA000921841EB0101A3F10103704708B501212B
:101FB000082002F045FB4FF48070ADF800001020BF
:101FC0008DF8030003208DF802006946044800F0F4
:101FD0008BFC4FF48071024800F01AFD08BD000030
:101FE000000C014010B5044603F038FA462003F017
:101FF0000BFA03F05BFA012800D110BD204603F074
:1020000003FA03F053FA012801D10220F5E703F0A7
:102010003DFA0020F1E710B500F006FD00F004F8ED
:102020001020FFF7DFFF10BD10B50120FFF7DAFF2A
:1020300010BD10B5002403F011FA472003F0E4F9B5
:1020400003F034FA012801D1002010BD03F0BAF9E1
:10205000044603F075F903F0B5F900EB042084B2EF
:1020600003F09CF903F012FA2046EEE700BFFEE70A
:102070000FB410B5CCB002AC4FA801904FF49471DE
:1020800002A8019B4E9AFEF79BF9002001900EA139
:10209000104802F067FF0BE014F8011B0D4802F036
:1020A000ADFE00BF40210B4802F0DFFD0028F9D053
:1020B00020780028F0D108A1064802F053FF4CB068
:1020C00010BC5DF814FB00005B4C4F475D202F3EB9
:1020D00020000000003801400D0A000010B5002467
:1020E0001548006820F00F00134908600846006892
:1020F00040F00800086004E0601CC4B2012003F056
:10210000F9F80E48006808B1642CF5DB642C01DB9B
:10211000012010BD002404E0601CC4B2012003F0C3
:10212000E9F80648006808B9642CF5DB642C01DB8B
:102130000120EEE70020ECE70408014020012142E5
:1021400008B50121042002F07BFA4FF48070ADF84D
:10215000000010208DF8030003208DF8020069466E
:10216000064800F0C1FB4FF48071044800F052FCB7
:1021700000F072F8FFF7B2FF08BD00000008014050
:1021800010B5002404E0601CC4B2012003F0B2F8D2
:102190000D48006808B1642CF5DB002404E0601CE5
:1021A000C4B2012003F0A6F80748006808B9642CFF
:1021B000F5DB282003F09EF80348006808B10120F1
:1021C00010BD0020FCE700002001214270B5002472
:1021D000002506E06006040EFFF7D2FF0443681CEA
:1021E000C5B2082DF6DB204670BD2DE9FC41054641
:1021F0000E461746984600F02FF8FFF76FFF30BBEA
:10220000002405E0FFF7E2FF0DF80400601CC4B2F3
:10221000052CF7DB9DF800009DF8011008449DF89F
:10222000021008449DF8031008449DF804108842E9
:1022300010D19DF8000028709DF8010030709DF8C5
:10224000020038709DF8030088F8000002E00120C9
:10225000BDE8FC810020FBE710B50C48006820F0C9
:102260000F000A4908600846006840F00300086053
:10227000002007490860142003F016F801200549E2
:10228000C1F8A0011E2003F035F810BD040801407C
:10229000A0012142000021427047000010B58021BA
:1022A0000348FEF7B6FB00200249088010BD00007D
:1022B000280600204200002070B50546002400BF1B
:1022C00000F004FA80B90DA10E48FEF78BFA04461F
:1022D00054B13A212046FEF769FA044614B1641C51
:1022E000204670BD0020FCE7052002F0DDFF681EDF
:1022F00085B2002DE4DC0020F3E700004950442CB7
:10230000000000002806002008B50121082002F086
:1023100097F910208DF803000001ADF800000320AC
:102320008DF8020069463F4800F0DEFA00224FF4C3
:1023300080713C4800F070FBFA2002F0B5FF0122EA
:102340001102384800F068FB4FF4FA7002F0ACFF5D
:10235000FFF7A4FF34A0FFF78BFE03E04FF4FA7001
:1023600002F0A2FF37A138A000F062F90028F5D1F1
:1023700037A0FFF77DFE32A13BA000F059F94FF4E2
:10238000FA7002F091FF2EA13AA000F051F94FF43B
:10239000FA7002F089FF3BA0FFF76AFE03E04FF4FA
:1023A000FA7002F081FF27A141A000F041F9002856
:1023B000F5D143A0FFF75CFE03E04FF4FA7002F0A2
:1023C00073FF20A148A000F033F90028F5D14AA2FC
:1023D0004CA14EA0FFF74CFE03E04FF4FA7002F060
:1023E00063FF5AA15BA000F023F90028F5D161A298
:1023F00062A166A0FFF73CFE03E04FF4FA7002F022
:1024000053FF6DA16EA000F013F90028F5D1012053
:102410007649087076A0FFF72BFE7FA0FFF728FE15
:1024200008BD0000000C0140302E204154202D201A
:10243000B2E2CAD44D43552D38323636CDA8D1B686
:10244000000000004F4B000041540D0A0000000046
:10245000312E2041542B525354202D20C8EDB8B4B6
:10246000CEBB38323636000041542B5253540D0A3D
:102470000000000041542B434950434C4F53450D3D
:102480000A000000322E2041542B43574D4F444543
:102490003D312C31202D20C9E8D6C338323636B92B
:1024A000A4D7F7C4A3CABDCEAA535441000000006C
:1024B00041542B43574D4F44453D310D0A00000018
:1024C000332E2041542B4357444843503D312C3147
:1024D000202D20CAB9C4DC535441C4A3CABDCFC205
:1024E000444843500000000041542B4357444843A4
:1024F000503D312C310D0A007732303031303130DF
:10250000382E00007465737400000000342E2041E2
:10251000542B43574A4150202D20C1ACBDD35749BD
:102520004649202D3E205B20535349443A202573D1
:10253000205D20202D3E205B2050617373776F72E9
:10254000643A202573205D2000000000474F54208E
:102550004950000041542B43574A41503D22746575
:102560007374222C227732303031303130382E22C1
:102570000D0A0000313838330000000062726F6BC2
:1025800065722E656D71782E696F0000352E2041C1
:10259000542B4349505354415254202D20C1ACBDBB
:1025A000D3B7FECEF1C6F7202D3E205B2025733A2F
:1025B0002573205D00000000434F4E4E45435400FC
:1025C00041542B43495053544152543D225443509B
:1025D000222C2262726F6B65722E656D71782E6986
:1025E0006F222C313838330D0A0000001200002011
:1025F000362E204553503832363620496E697420C5
:102600004F4B202D2045535038323636B3F5CABCD7
:10261000BBAFB3C9B9A6000045535038323636B304
:10262000F5CABCBBAF0909095B4F4B5D0000000058
:102630002DE9F04104460D46C8262046FEF708F96C
:1026400087B23A4621460D4802F0B0FC0FE000F098
:102650003DF848B929460A48FEF7C4F820B1FFF70B
:102660001DFE0020BDE8F0810A2002F01DFE301E94
:10267000A6F10101CEB2EAD10120F3E70044004007
:102680002806002030B589B004460D46FFF706FE47
:102690002A4608A101A8FDF7ADFE0AA101A8FFF78F
:1026A000C7FF20B92A462146074802F07FFC09B03F
:1026B00030BD000041542B43495053454E443D2505
:1026C000640D0A003E000000004400400A480088F3
:1026D00008B90120704708480088084909888842DD
:1026E00003D1002004490880F4E703480088034927
:1026F00008800120EEE70000420000204400002096
:1027000010B50A2002F0D0FD1021084800F077F93A
:1027100038B90748006808B9012000E000200449E2
:102720000860012000F070F810BD000000180140A2
:102730009481214210B50A2002F0B6FD01210A4819
:1027400000F05DF960B90948007808B9012000E09F
:1027500000200649087000200549087005490860F6
:10276000022000F051F810BD0008014010000020C8
:1027700011000020948121420EB50121084601F08C
:102780005FFF00F0B3F90421084600F08DF8012046
:10279000019000208DF808000C208DF80900012020
:1027A0008DF80A0001A800F035F80021084600F075
:1027B0007BF80220019000208DF808000C208DF895
:1027C000090001208DF80A0001A800F023F8062076
:1027D0008DF8000002208DF801008DF80200012024
:1027E0008DF80300684600F05BFF07208DF80000BD
:1027F00002208DF801008DF8020001208DF8030001
:10280000684600F04DFF0EBD0149086070470000AA
:1028100014040140002123498279002A3AD00A4653
:10282000126803689A430B461A600A1D126803680F
:102830009A430B1D1A60027911440A6803681A430F
:102840000A60184A0832126803689A43154B083325
:102850001A601A1D126803689A43124B0C331A60EF
:102860004279102A0ED11A1F126803681A430D4BC1
:1028700008331A601A1D126803681A43094B0C3397
:102880001A600DE00749427911440A6803681A4347
:102890000A6005E0027911440A6803689A430A60F5
:1028A000704700000004014030B500228B071C0F68
:1028B0000F2303FA04F20B4B8C1053F8243093438C
:1028C000084C8D1044F8253023468C1053F82430E2
:1028D0008C07240F00FA04F42343024C8D1044F8B3
:1028E000253030BD080001402DE9F04102460025A9
:1028F0000026002000230024002791F803C00CF0DC
:102900000F0591F803C00CF0100CBCF1000F03D0C0
:1029100091F802C04CEA050591F800C0BCF1000F27
:1029200031D0146800202BE04FF0010C0CFA00F3BA
:10293000B1F800C00CEA03069E4220D183004FF09C
:102940000F0C0CFA03F7BC4305FA03FC4CEA040431
:1029500091F803C0BCF1280F06D14FF0010C0CFA1E
:1029600000FCC2F814C00AE091F803C0BCF1480FA3
:1029700005D14FF0010C0CFA00FCC2F810C0401C4D
:102980000828D1D31460B1F800C0BCF1FF0F34DDCA
:10299000546800202EE000F1080C4FF0010808FAFE
:1029A0000CF3B1F800C00CEA03069E4221D183006B
:1029B0004FF00F0C0CFA03F7BC4305FA03FC4CEA8A
:1029C000040491F803C0BCF1280F05D100F1080CF4
:1029D00008FA0CF8C2F8148091F803C0BCF1480F53
:1029E00007D100F1080C4FF0010808FA0CF8C2F802
:1029F0001080401C0828CED35460BDE8F081024608
:102A0000002093680B400BB1012000E000207047CC
:102A100041617047016170470AB1016100E04161A5
:102A2000704700BFFEE7000008B50121202001F03B
:102A300007FEC020ADF8000003208DF8020014202E
:102A40008DF8030069460348FFF74EFF02F01EFDB4
:102A500008BD00000014014010B580210A48FFF7AE
:102A6000D9FF20210848FFF7D5FF00F037F8802173
:102A70000548FFF7CDFF00F031F820210248FFF7AD
:102A8000C7FF00F02BF810BD0008014010B58021F1
:102A90000648FFF7BDFF20210448FFF7BBFF00F009
:102AA0001DF880210148FFF7B5FF10BD0008014067
:102AB00010B580210848FFF7ADFF00F00FF8202186
:102AC0000548FFF7A7FF00F009F820210248FFF7AB
:102AD0009FFF00F003F810BD00080140032000BF75
:102AE000011EA0F10102D0B2FAD1704708B5012150
:102AF000442001F0A5FD1020ADF8000028208DF83D
:102B0000030069460648FFF7EFFE0120ADF800001C
:102B100028208DF8030069460248FFF7E5FE08BD4E
:102B2000001801400008014008B50121482001F0CB
:102B300087FD2020ADF8000010208DF80300032051
:102B40008DF8020069460948FFF7CEFE20210748AC
:102B5000FFF760FF2020ADF8000069460448FFF74A
:102B6000C3FE20210248FFF755FF08BD000C0140BD
:102B70000018014070B5FFF75CFA064604F0FAFE53
:102B80000546044904F034FE04464FF07E5104F03B
:102B900039FF70BDCDCC8C3F10B50446207B012899
:102BA00002D12068FDF7D7FB002020606060A060A4
:102BB000207310BD0246002301230DE002F07F00C8
:102BC0000870D2092AB1087840F080000870491CCA
:102BD00001E0184670475B1C042BEFDD4FF0FF301F
:102BE000F8E770B504460E460025206898B9012024
:102BF00020733046FDF780FB20602068E0B10020A4
:102C00006060A66003E00020216848556D1CA06844
:102C1000A842F8D810E00220207303E000202168C9
:102C200048556D1CA068A842F8D800206060A068D4
:102C3000B04201D20020206070BD00002DE9FF5F8E
:102C400007460D4690463846FDF702FE86B22846F6
:102C5000FDF7FEFD1FFA80FA4FF00009F01DFDF7A9
:102C60004BFB04461CB9012004B0BDE8F09FF11DE8
:102C70002046FDF7CEFE12A0016821608088A0806A
:102C8000324639462046FDF79BFD2846FDF7E0FD1C
:102C900083460120002100915B462A46CDE90208C7
:102CA000019121460A2000F05FF910B94FF00009A8
:102CB00001E04FF001092046FDF74DFB4846D3E700
:102CC00024637273702F00002DE9FF4F83B082469A
:102CD0008B469146159C0025002002900F270190FD
:102CE0004846FDF7B5FD0FFA80F8B9F1000F03D1A2
:102CF000012007B0BDE8F08F08F10200384487B228
:102D0000109808B145F00205129878B145F0040515
:102D10001298FDF79DFDC0B202901398FDF798FD43
:102D200001460298001D0844384487B2119820B12A
:102D3000012804D0022808D104E000BF07E045F0D4
:102D40000C0504E045F0140501E00220D1E700BFC6
:102D5000149808B145F02405BAF1000F02D0BBF178
:102D6000000F01D10320C4E745F0C0055046FDF730
:102D70006FFD06465846FDF76BFD3044001D384494
:102D800087B239462046FFF72CFF206808B9042097
:102D9000AFE739462068FDF73CFE10216268501C01
:102DA000606020688154D4E90023D118781FFFF7B0
:102DB00001FF00B201900198002804DA2046FFF7D5
:102DC000EBFE052095E761680198084460600021EA
:102DD0006268501C60602068815404216268501C45
:102DE0006060206881544D216268501C60602068DA
:102DF000815451216268501C6060206881545421C4
:102E00006268501C6060206881546268501C606079
:102E10002068815404216268501C606020688154DD
:102E20006168481C6060206845540698010A626821
:102E3000501C6060206881540698C1B26268501CC2
:102E4000606020688154C8F307216268501C60608C
:102E5000206881546268501C6060206800F802801D
:102E6000D4E90012881842464946FDF7A9FC60687B
:102E70004044606005F00400B8B30026139808B918
:102E800038A013901298FDF7E3FC86B2310A62680D
:102E9000501C6060206881546268501C606020682B
:102EA0008654D4E90012881832461299FDF788FC3E
:102EB0006068304460601398FDF7CAFC86B2310A3E
:102EC0006268501C6060206881546268501C6060B9
:102ED00020688654D4E90012881832461399FDF709
:102EE0006FFC60683044606000BF05F08000C8B1CE
:102EF0005046FDF7ADFC86B2310A6268501C606036
:102F0000206881546268501C606020688654D4E94F
:102F10000012881832465146FDF752FC6068304472
:102F2000606000BF05F04000C8B15846FDF790FC56
:102F300086B2310A6268501C606020688154626801
:102F4000501C606020688654D4E90012881832460C
:102F50005946FDF735FC60683044606000BF0020D2
:102F6000C7E60000000000002DE9FF4F83B0834654
:102F700017469946139C00250026002002900190D8
:102F80008046BBF1000F03D1012007B0BDE8F08FF0
:102F900000260AE00498805D232803D00498805D11
:102FA0002B2801D10220F0E7761C0498805D0028D0
:102FB000F0D148F03008119808B148F0010806EB4C
:102FC0000900851C109820B1012804D002280AD1DC
:102FD00005E000BF09E048F00208AD1C05E048F03C
:102FE0000408AD1C01E00320CFE700BF8FB33878A1
:102FF000022821D14FF0000A00BF50460AF1010A11
:10300000385C7D28F9D1AAF1030A0AF10700029081
:103010000298A9EB000AE81CA0EB0A012046FFF782
:10302000E0FD206808B90420AFE7EA1CA2EB0A0122
:103030002068FDF7EEFC19E0691D2046FFF7D1FD81
:10304000206808B90420A0E7691D2068FDF7E1FCAD
:103050000CE0FFE7691D2046FFF7C3FD206808B9B3
:10306000042092E7691D2068FDF7D3FC6168481CC5
:103070006060206800F80180D4E9000281182846C9
:10308000FFF798FD01900198002804DA2046FFF729
:1030900083FD052079E76168019808446060C6F304
:1030A00007216268501C6060206881546268501C6F
:1030B000606020688654D4E900128818324604996A
:1030C000FDF77EFB606830446060109860B14FEAA5
:1030D0001B216268501C6060206881546268501C2B
:1030E0006060206800F802B0C7B1387802280BD1C0
:1030F000D4E9001288183946029AFDF713FC61687A
:1031000002980844606009E0D4E9001288184A4631
:103110003946FDF707FC606848446060002034E7EA
:1031200070B505460C4604212046FFF75AFD20687D
:1031300008B9012070BD70216268501C6060206871
:10314000815402216268501C6060206881542912F9
:103150006268501C6060206881546268501C606026
:10316000206885540020E5E770B505460C4604212B
:103170002046FFF736FD206808B9012070BD6221A6
:103180006268501C60602068815402216268501C93
:1031900060602068815429126268501C6060206859
:1031A00081546268501C6060206885540020E5E707
:1031B0002DE9FF5F8046174699460E9C0026B246D1
:1031C000B3460025B8F1000F03D1012004B0BDE8DB
:1031D000F09F0BE057F8250008B90220F6E757F8F2
:1031E0002500FDF735FB0644681CC5B24D45F1DBF3
:1031F00009EB4900801C00EB060A0AF10501204694
:10320000FFF7EFFC206808B90320DFE7822162683E
:10321000501C606020688154D4E900028118504637
:10322000FFF7C8FC0FFA80FBBBF1000F04DA204661
:10323000FFF7B2FC0420C9E76068584460604FEAB9
:1032400018216268501C6060206881546268501CBC
:103250006060206800F80280002524E057F825000F
:10326000FDF7F6FA0646C6F307216268501C606057
:10327000206881546268501C606020688654D4E9DC
:103280000023D01857F825103246FDF799FA6068E8
:10329000304460600198C1B26268501C6060206870
:1032A0008154681CC5B24D45D8DB00208EE7F0B5CF
:1032B00004460D462646012300201060002114E03C
:1032C000775C07F07F07106807FB03001060705CF5
:1032D00000F0800008B9481CF0BDDB01B3F5001F09
:1032E00002D36FF00100F7E7491CA942E8DB4FF079
:1032F000FF30F1E72DE9F84380460C4615461E469F
:103300002F2108F10600FDF751FA07460020009032
:1033100017B90120BDE8F8837F1C6A46042108F133
:103320000100FFF7C4FF2520FCF7E6FF20602068BE
:1033300008B90220EEE725212068FDF76AFB242268
:1033400039462068FDF7EEFA243700982C38308093
:103350003188481CFCF7D0FF2860286820B9206815
:10336000FCF7F9FF0320D5E73288511C2868FDF7E8
:1033700050FB328839462868FDF7D4FA0020C9E7A7
:1033800001464878022801D001207047887810B1A2
:103390008878012801D1C878F7E7FF20F5E7000019
:1033A0002DE9FC5F81460D4614461E46DDE90C8B77
:1033B00099F8000000F00F0A002001900AF00800C0
:1033C0000090CAF341008BF8000001AA042109F122
:1033D0000100FFF76CFF4844471C0198022802D304
:1033E0000AF0010010B1FF20BDE8FC9F7878397821
:1033F00040EA012020802088801C0199884201D960
:10340000FF20F1E754A1B81CFDF7ECF908B10F203B
:10341000EAE79BF8000020B101283DD0022877D1CF
:103420003BE0009808B1FF20DEE72188481CFCF74C
:1034300063FF2860286808B9FF20D5E72288511C5F
:103440002868FDF7E6FA2288B91C2868FDF76AFAB1
:103450000198801E2188401AA8F80000B8F80010D2
:10346000481CFCF749FF3060306820B92868FCF739
:1034700072FFFF20B8E7B8F80020511C3068FDF754
:10348000C8FAB8F80020B4F800C0BB1C0CEB03016C
:103490003068FDF747FA4FE000BF2088801C019993
:1034A000884201D9FF209FE72088C01C395C208812
:1034B000801C385C41EA00210E9801800E9808B902
:1034C000FF2091E72188481CFCF716FF2860286838
:1034D00008B9FF2088E72288511C2868FDF799FA6F
:1034E0002288B91C2868FDF71DFA0198001F218861
:1034F000401AA8F80000B8F80010481CFCF7FCFEC1
:103500003060306828B92868FCF725FFFF206BE79A
:1035100010E0B8F80020511C3068FDF77AFAB8F8CE
:103520000020B4F800C03B1D0CEB03013068FDF730
:10353000F9F901E0FF2057E700BF2B212846FDF7EE
:1035400035F920B923212846FDF730F908B1FF20CD
:103550004AE7002048E7000024637265710000001C
:1035600001464878022801D001207047887820B9A8
:10357000C8780A2801D10020F7E70120F5E70146C5
:103580004878022801D001207047887820B9C8788F
:103590000A2801D10020F7E70120F5E70146487825
:1035A000022801D001207047887820B9C8780A28FD
:1035B00001D10020F7E70120F5E702465078022804
:1035C00001D0012070479078B0EB112F05D1D07851
:1035D000CBB2984201D10020F4E70120F2E70000CD
:1035E000F8B50446FF2720780511012D01DB0E2DCB
:1035F00001DD3846F8BD032D24D1002000906A4635
:103600000421601CFFF753FE2044461C009802284A
:1036100003D3207800F0010008B1FF20EAE77078BA
:10362000317840EA0120801C0099884201D9FF20AE
:10363000E0E706A1B01CFDF7D5F808B10F2700E0C0
:10364000032700E02F463846D4E700002463726564
:10365000710000000146FF208A78A2B9CA78142AB6
:1036600011D10A7932B1012A05D0022A04D0802A68
:1036700006D103E000BF00BF002003E0012001E00D
:10368000022000BF00BF7047014601208A781AB9A6
:10369000CA781E2A00D10020704700BFFEE770479D
:1036A00070B5002100230F22C47804B3154C2468A0
:1036B00004F4E064C4F5E064210AC1F10403CA40E3
:1036C000447804FA03F184781440214309010E4C34
:1036D0000678A155047804F01F050124AC40057854
:1036E0006D11AD0005F1E025C5F8004109E0047851
:1036F00004F01F050124AC40044D0678761145F80E
:10370000264070BD0CED00E000E400E080E100E048
:1037100002490143024A1160704700000000FA05A7
:103720000CED00E070B500240CE0002506E0002060
:10373000074901EBC5010855681CC5B2802DF6DBB1
:10374000601CC4B2082CF0DB00F01CF970BD000056
:1037500068010020F8B504460D4616461F460120B4
:103760003B4607A229460090204600F027FB012097
:103770003B46324629460090204600F01FFBF8BD2C
:103780002020202020202020202020202020202039
:103790000000000010B504461CB90021A62000F06E
:1037A00032FB012C03D10021A72000F02CFB10BD1F
:1037B00010B504463CB90021C82000F024FB0021CC
:1037C000A12000F020FB012C07D10021C02000F037
:1037D0001AFB0021A02000F016FB10BDF0B5144626
:1037E0000B46CF1701EB5777C7F3C702CF1701EB93
:1037F0005777FF10A1EBC707FEB20123B340DDB23C
:103800004CB1134B03EBC0039B5C2B43104F07EBF6
:10381000C007BB541AE00E4B03EBC0039B5CDB43B9
:103820000B4F07EBC007BB54094B03EBC0039B5C7A
:103830002B43074F07EBC007BB54054B03EBC003FB
:103840009B5CDB43024F07EBC007BB54F0BD00009D
:103850006801002008B50121042000F0F1FEA0203D
:10386000ADF8000014208DF8030003208DF802004D
:1038700069464348FFF738F8A0214148FFF7CAF8E6
:103880000420ADF8000010208DF8030003208DF80F
:10389000020069463A48FFF727F804213848FFF745
:1038A000B9F8C82001F000FD0021AE2000F0ABFA0D
:1038B0000021084600F0A7FA0021102000F0A3FA2A
:1038C0000021402000F09FFA0021812000F09BFAA7
:1038D0000021CF2000F097FA0021A12000F093FAF8
:1038E0000021C82000F08FFA0021A62000F08BFAFA
:1038F0000021A82000F087FA00213F2000F083FA81
:103900000021D32000F07FFA0021084600F07BFA66
:103910000021D52000F077FA0021802000F073FA12
:103920000021D92000F06FFA0021F12000F06BFA9D
:103930000021DA2000F067FA0021122000F063FA7B
:103940000021DB2000F05FFA0021302000F05BFA5C
:103950000021202000F057FA0021022000F053FA45
:1039600000218D2000F04FFA0021142000F04BFAC6
:10397000FFF7D8FE0021AF2000F045FA08BD000097
:103980000008014070B500242BE004F1B001C8B27A
:10399000002100F038FA0021084600F034FA002136
:1039A000102000F030FAFFF757F8782000F0C4FE3E
:1039B000FFF77EF8402000F0BFFEFFF779F8002502
:1039C00009E0094901EBC501085D00F0B5FEFFF70C
:1039D0006FF8681CC5B2802DF3DBFFF757F8601C49
:1039E000C4B2082CD1DB70BD68010020F8B50546D3
:1039F00000245B48007804285EDA59490878C1172A
:103A000000EB91718910A0EB810131B1012909D03E
:103A100002290CD0032914D10EE029465148FCF7A5
:103A2000F3FE0FE029465048FCF7EEFE0AE0294677
:103A30004E48FCF7E9FE05E029464D48FCF7E4FE58
:103A400000E000BF00BF46480678F01706EB907014
:103A50008010A6EB80000007010E10232A460020EC
:103A6000FFF778FEFFF78EFFFCF70CFC642190FB5C
:103A7000F1F201FB1204A0B201F016FC012000904B
:103A800037480678F01706EB90708010A6EB8000A0
:103A90000007010E102337A2582000F08FF9FFF71E
:103AA00071FFFCF7EFFB642190FBF1F201FB1204C4
:103AB000A0B201F0F9FB4DE02B492A48FCF7A4FE27
:103AC00001201023274A00210090084600F076F9D3
:103AD00026492548FCF798FE01201023224A194662
:103AE0000090002000F06AF921492048FCF78CFE84
:103AF000012010231D4A20210090002000F05EF9D3
:103B000029461B48FCF780FE10232A46302100205E
:103B1000FFF720FEFFF736FFFCF7B4FB642190FBB4
:103B2000F1F201FB1204A0B201F0BEFB0120102350
:103B300010A230210090582000F040F9FFF722FF3A
:103B4000FCF7A0FB642190FBF1F201FB1204A0B290
:103B500001F0AAFB02480078401C01490870F8BD3A
:103B600040000020E8050020F8050020080600209D
:103B7000180600205B4F4B5D000000002DE9FE4F52
:103B80000746884692461C460197CDF80080082CCF
:103B900002D14FF006091FE02046E31704EB5373F0
:103BA000DB1021464FEAE47C04EB5C7C4FEAEC0C32
:103BB000A4EBCC0CBCF1000F02D04FF0010C01E0E3
:103BC0004FF0000C6344224604EBD27C4FEA6C0CAD
:103BD00003FB0CF303F0FF09AAF12000C6B2002595
:103BE0005EE0082C07D106EB46002F4901EB4000B0
:103BF00010F805B01DE00C2C07D106EB46002B4950
:103C000001EB800010F805B013E0102C05D1284816
:103C100000EB061010F805B00BE0182C07D106EBEE
:103C2000C600244901EB800010F805B001E0BDE8B2
:103C3000FE8F002002901CE00BF0010028B14146ED
:103C400038460C9AFFF7CAFD09E00C9808B9012024
:103C500000E00020024641463846FFF7BFFD4FEA2C
:103C60006B0B08F1010000F0FF080298401CC0B285
:103C7000029002980828DFDB781CC7B2082C0BD012
:103C800004EBD4714A100199791A8A4204D1019F38
:103C900000980830C0B20090DDF80080681CC5B202
:103CA0004D459EDB00BFC2E7A47C0008CC7E000827
:103CB00040830008308900082DE9FC4F07468846FC
:103CC00016461C46BB46CDF804802046E21704EB9E
:103CD0005272D2102146E31704EB5373DB10A4EBAE
:103CE000C3030BB1012300E000231A44624392B2E4
:103CF0000092002555E0102C05D12C4800EB461011
:103D000010F805A01BE0182C07D106EBC6002849C7
:103D100001EBC00010F805A011E0202C05D12548CA
:103D200000EBC61010F805A009E0402C05D1224890
:103D300000EB462010F805A001E0BDE8FC8F4FF035
:103D400000091CE00AF0010028B1414638460B9AF0
:103D5000FFF744FD09E00B9808B9012000E00020BE
:103D6000024641463846FFF739FD4FEA6A0A08F134
:103D7000010000F0FF0809F1010000F0FF09B9F1AE
:103D8000080FDFDB781CC7B2A7EB0B00A04204D101
:103D90005F4601980830C0B20190DDF80480681CCD
:103DA00085B200988542A6DB00BFC6E78C96000866
:103DB0002C9A0008749A0008F49A00082DE9F8413A
:103DC00006460F4614461D46DDF81C8013E0CDF86C
:103DD000008022782B4639463046FFF7CFFE082D6B
:103DE00002D1B01DC6B205E0284605EBD07106EB46
:103DF0006101CEB2641C2078202802DB20787E2866
:103E0000E5DDBDE8F88170B505460C46FEF724FEF9
:103E1000782000F091FCFEF74BFE1CB1402000F032
:103E20008BFC02E0002000F087FCFEF741FE2846F4
:103E300000F082FCFEF73CFEFEF728FE70BD00009D
:103E400030B58BB000200790089009900A900125AA
:103E500030A032A333A235A10090404801F082F88F
:103E600007A8002102910391CDE9041000912B02D3
:103E700028A2019129A12BA0FEF726FF002842D1FC
:103E8000089A91B20798FEF7FDFBFA20FEF714FAA4
:103E90000446002C33D02046FFF7A2FB02282ED187
:103EA0002046FFF76DFA062823D2DFE800F0030969
:103EB0000E13181D2AA1294801F054F800251DE011
:103EC0002CA1264801F04EF818E031A1234801F05A
:103ED00049F813E037A1214801F044F80EE03DA174
:103EE0001E4801F03FF809E043A11C4801F03AF8F0
:103EF00004E04CA1194801F035F800BF00BF07A845
:103F0000FEF74AFE03E04EA1144801F02BF82846C4
:103F10000BB030BD353631363833390074657374C3
:103F20000000000037373234370000004F6E654E16
:103F300065745F4465764C696E6B0D0A50524F494B
:103F4000443A2025732C09415549463A2025732CC3
:103F50000944455649443A25730D0A00003801408A
:103F6000546970733A09C1ACBDD3B3C9B9A60D0A7F
:103F7000000000005741524E3A09C1ACBDD3CAA758
:103F8000B0DCA3BAD0ADD2E9B4EDCEF30D0A000097
:103F90005741524E3A09C1ACBDD3CAA7B0DCA3BA4F
:103FA000B7C7B7A8B5C4636C69656E7469640D0A58
:103FB000000000005741524E3A09C1ACBDD3CAA718
:103FC000B0DCA3BAB7FECEF1C6F7CAA7B0DC0D0AC3
:103FD000000000005741524E3A09C1ACBDD3CAA7F8
:103FE000B0DCA3BAD3C3BBA7C3FBBBF2C3DCC2EB39
:103FF000B4EDCEF30D0A00005741524E3A09C1AC60
:10400000BDD3CAA7B0DCA3BAB7C7B7A8C1B4BDD3E4
:1040100028B1C8C8E7746F6B656EB7C7B7A8290D1C
:104020000A0000004552523A09C1ACBDD3CAA7B03C
:10403000DCA3BACEB4D6AAB4EDCEF30D0A000000CC
:104040005741524E3A094D5154545F5061636B656C
:1040500074436F6E6E656374204661696C65640DB0
:104060000A00000070B588B005460C460020049098
:1040700005900690079023462A4610A1174800F0A5
:1040800071FF2046FCF7E4FB064604A8012100224C
:1040900000923346CDE901210390224629460A20A9
:1040A000FEF762FF38B9059A91B20498FEF7EAFA72
:1040B00004A8FEF771FD08B070BD00005075626C79
:1040C00069736820546F7069633A2025732C204D02
:1040D00073673A2025730D0A000000000038014084
:1040E0002DE9F04F8FB0814600200B900C900D9081
:1040F0000E900A90099008900790002706900026DD
:10410000002582464846FFF76BFA0746F81E0D2841
:104110007ED2DFE800F02BA3ACC6E27DEB7DFA7D1A
:104120007D7D070007AB0AAA09A94846FFF7E2F818
:104130000646D6B9BDF81C00009094A19C48DDE964
:10414000092300F00FFF0BAADDE90901FEF776FD58
:1041500058B998A1964800F005FF0C9A91B20B98B7
:10416000FEF790FA0BA8FEF717FDDFE0974806A9C7
:1041700007AA0AABCDE90021029008AA09A948467E
:10418000FFF70EF90646002E67D191A0FDF770FFEC
:10419000BDF81C000A99CDE90010BDF8203095A1AA
:1041A0008348099A00F0DEFE0A9800F0FBFF804683
:1041B000B8F1000F08D100F0CFFF83465A469CA10A
:1041C0007B4800F0CFFE42E09EA1404600F0CAFFCF
:1041D00004469EA17648226A00F0C4FE9BA1744862
:1041E000226900F0BFFE9EA12069FCF7FBFAE8B14E
:1041F0009CA1404600F0B6FF044694A16C48226A98
:1042000000F0B0FE91A16A48226900F0ABFE00E028
:1042100089E096A12069FCF745FC18B90020944973
:10422000086014E001209249086010E08DA140462A
:1042300000F098FF0446606918B101208D490870AC
:1042400002E000208B49087000208B49087040462E
:1042500000F056FF89A0FDF70BFF67E04846FFF727
:104260007FF918B98EA1524800F07CFE5EE0484606
:10427000FFF794F9A0B992A14D4800F073FE0BA985
:104280000A20FEF771FF58B993A1494800F06AFE71
:104290000C9A91B20B98FEF7F5F90BA8FEF77CFC8F
:1042A00044E04A4801884846FFF787F9A0B990A141
:1042B0003F4800F057FE0BA90A20FEF731FF58B91E
:1042C00091A13B4800F04EFE0C9A91B20B98FEF77C
:1042D000D9F90BA8FEF760FC28E04846FFF74FF934
:1042E00018B990A1324800F03DFE1FE04846FFF7A4
:1042F000B1F928B991A12E4800F034FE04E004E0A1
:1043000095A12B4800F02EFE10E04846FFF7BCF9BF
:1043100020B998A1264800F025FE03E09CA124487E
:1043200000F020FE02E04FF0FF3600BF00BFFDF7B7
:10433000B5FF701C10B90FB0BDE8F08F7D210A9851
:10434000FCF734FA0546A5B1701C90B16D1C06E06F
:1043500015F8012B50460AF1010A03A90A542878DE
:10436000302802DB28783928F2DD03A8FCF7F2F9BF
:1043700082460F2F01D0032F05D10998FBF7EBFFE1
:104380000A98FBF7E8FF00BFD5E70000636D64699A
:10439000643A2025732C207265713A2025732C20F5
:1043A0007265715F6C656E3A2025640D0A0000002D
:1043B00000380140546970733A0953656E642043B4
:1043C0006D64526573700D0A000000004600002005
:1043D0003C3C3C3C3C3C20676574206D61737361E0
:1043E00067652073746172743A203C3C3C3C3C3CF1
:1043F00000000000746F7069633A2025732C2074EC
:104400006F7069635F6C656E3A2025642C20706163
:10441000796C6F61643A2025732C207061796C6F20
:1044200061645F6C656E3A2025640D0A000000002F
:104430004572726F72206265666F72653A205B2505
:10444000735D0A0074617267657400006A736F6E51
:104450005F76616C75653A205B25735D0D0A00001F
:104460004C45440076616C75650000003100000029
:104470009401234210000020110000203C3C3C3CF1
:104480003C3C20676574206D6173736167652065CE
:104490006E64203A20203C3C3C3C3C3C0000000048
:1044A000546970733A094D515454205075626C69C7
:1044B00073682053656E64204F4B0D0A00000000A6
:1044C000546970733A09526576205075626C69734D
:1044D000685265630D0A0000546970733A095365A8
:1044E0006E64205075626C69736852656C0D0A00C9
:1044F000546970733A09526576205075626C69731D
:104500006852656C0D0A0000546970733A0953656E
:104510006E64205075626C697368436F6D700D0A2C
:1045200000000000546970733A0952657620507596
:10453000626C697368436F6D700D0A005469707323
:104540003A094D5154542053756273637269626520
:10455000204F4B0D0A000000546970733A094D5109
:104560005454205375627363726962652045727298
:104570000D0A0000546970733A094D515454205586
:104580006E537562736372696265204F4B0D0A004A
:10459000546970733A094D51545420556E537562E5
:1045A000736372696265204572720D0A0000000033
:1045B00070B586B004460D46002600200290039098
:1045C0000490059007E054F826200DA1124800F051
:1045D000C9FC701CC6B2AE42F5DB02A82B462246CF
:1045E000002100901420FEF7E3FD38B9039A91B240
:1045F0000298FEF747F802A8FEF7CEFA06B070BDA3
:1046000053756273637269626520546F7069633AAF
:104610002025730D0A00000000380140704700009B
:1046200029B1064AD2690243044BDA6104E0034A25
:10463000D2698243014BDA617047000000100240EA
:1046400029B1064A92690243044B9A6104E0034A85
:1046500092698243014B9A6170470000001002404A
:1046600030B500210022002400232D4D6D6805F097
:104670000C0121B1042905D0082923D105E0294DD9
:10468000056022E0274D05601FE0254D6D6805F4AB
:104690007012234D6D6805F48034022505EB9242BB
:1046A0001CB9214D554305600BE01D4D6D6805F4A7
:1046B00000351DB11C4D5543056002E0194D5543B1
:1046C000056002E0174D056000BF00BF144D6D6826
:1046D00005F0F0010909154D6B5C0568DD4045608A
:1046E0000F4D6D6805F4E061090A104D6B5C45687B
:1046F000DD4085600A4D6D6805F46051C90A0B4DB7
:104700006B5C4568DD40C560054D6D6805F4404152
:10471000890B074D6B5CC568B5FBF3F5056130BDD2
:104720000010024000127A0000093D00280000201D
:10473000380000207047000070B5044600251BE0DB
:1047400004F0800020B180210D48FEF763F903E0FA
:1047500080210B48FEF75CF9FEF7C0F920210848DC
:10476000FEF758F9FEF7BAF920210548FEF750F98F
:104770006006040E681CC5B2082DE1DB70BD0000A8
:104780000008014010B500F001F810BD0CB5002084
:10479000019000903348006840F48030314908604F
:1047A00000BF3048006800F4003000900198401CC1
:1047B0000190009818B90198B0F5A06FF1D129487F
:1047C000006800F4003010B10120009001E00020EA
:1047D00000900098012843D12348006840F0100061
:1047E000214908600846006820F003000860084678
:1047F000006840F0020008601A48406819494860A3
:104800000846406848600846406840F48060486058
:104810000846406820F47C1048600846406840F430
:10482000E81048600846006840F08070086000BFEB
:104830000C48006800F000700028F9D00948406872
:1048400020F00300074948600846406840F0020035
:10485000486000BF0348406800F00C000828F9D108
:104860000CBD00000010024000200240042808D1C6
:104870004FF0E021096941F004014FF0E02211619D
:1048800007E04FF0E021096921F004014FF0E02238
:10489000116170477047000010B51348006840F080
:1048A00001001149086008464068104908400E4957
:1048B0004860084600680E4908400B4908600846F1
:1048C000006820F4802008600846406820F4FE005C
:1048D00048604FF41F008860FFF754FF4FF00060FE
:1048E0000449086010BD0000001002400000FFF8FD
:1048F000FFFFF6FE08ED00E038B50121880700F063
:10490000FEF8002844D00121880700F0E9F821A131
:104910002248FBF76FFD01201023204A0021009060
:104920002020FFF74BFA1E4803781E4802781EA18C
:104930001A48FBF75FFD01201023184A1946009022
:104940000020FFF73BFA1C4803781C4802781CA1A2
:104950001248FBF74FFD01201023104A2021009040
:104960000020FFF72BFA1A48006802F009FF0446FE
:1049700022460B4617A10948FBF73CFD01201023F6
:10498000064A302100900020FFF718FAFEF7FAFFE0
:1049900038BD000057656C636F6D650054010020E1
:1049A000010000200000002048756D69643A25640C
:1049B0002E25642025250000030000200200002091
:1049C00054656D70653A25642E256420430000000F
:1049D000040000204C696768743A252E3166204C2B
:1049E000780000007FB505460C4601210846FFF718
:1049F00017FEADF80850ADF804400020ADF80A00ED
:104A0000ADF8060001A94FF0804000F093F80122B4
:104A10001146900700F084F81C208DF8000000205B
:104A20008DF8010003208DF8020001208DF80300AD
:104A30006846FEF735FE0121880700F054F87FBD77
:104A400010B501210B4800F05AF890B10121094836
:104A500000F046F80848007840B10848006808B9F6
:104A6000012000E000200549086002E00120034920
:104A7000086010BD0004004010000020A081214209
:104A80007FB505460C4601210220FFF7C9FDADF8B0
:104A90000850ADF804400020ADF80A00ADF806005B
:104AA00001A90E4800F046F8012211460B4800F01B
:104AB00037F81D208DF8000000208DF8010003203C
:104AC0008DF8020001208DF803006846FEF7E8FD2E
:104AD0000121024800F007F87FBD000000040040FB
:104AE000CA430282704721B1028842F0010202806B
:104AF00004E002884FF6FE731A400280704730B51A
:104B00000246002000230024158A05EA0103958946
:104B100005EA010413B10CB1012000E0002030BD12
:104B20001AB183890B43838102E083898B4383819C
:104B300070470000002202881D4B98420ED01D4B8A
:104B400098420BD0B0F1804F08D01B4B984205D053
:104B50001A4B984202D01A4B984204D14FF68F73E9
:104B60001A404B881A43174B984207D0164B98426D
:104B700004D04FF6FF431A40CB881A4302808B883B
:104B800083850B8803850A4B98420BD0094B9842CA
:104B900008D00E4B984205D00D4B984202D00D4BD9
:104BA000984201D10B7A038601238382704700006B
:104BB000002C014000340140000400400008004087
:104BC000000C004000100040001400400040014074
:104BD000004401400048014010B540F2255104480E
:104BE00000F050F818B12021014800F029F810BD5C
:104BF0000038014010B540F225510E4800F042F84F
:104C0000B0B10D480088802802D300200A490880EE
:104C10000848001D0088C1B2074802880088401C6F
:104C2000054B1880054881542021024800F008F8FF
:104C300010BD000000440040420000202806002073
:104C400001F40072B2F5007F00D100BFCA430280B8
:104C5000704721B1828942F40052828104E0828946
:104C60004DF6FF731A408281704702460020B1F56D
:104C7000007F00D100BF13880B400BB1012000E082
:104C80000020704770B50246002400230025002054
:104C900040F66A16B14200D100BFC1F3421501F0DF
:104CA0001F03012606FA03F3012D02D19689334032
:104CB00006E0022D02D1168A334001E0968A334085
:104CC0000C12012606FA04F41688344013B10CB114
:104CD000012000E0002070BDF0B50346002400264E
:104CE0000025002040F66A17B94200D100BF1846DF
:104CF000C1F3421401F01F06012707FA06F5012C43
:104D000001D10C3004E0022C01D1103000E014304D
:104D10001AB107682F43076002E00768AF430760D6
:104D2000F0BD00002DE9F04786B005460E46002490
:104D3000A24600BFA1460027B08900B100BF2F46A0
:104D40002C8A4CF6FF700440F08804432C82AC8916
:104D50004EF6F3100440B088318908437189084346
:104D60000443AC81AC8A4FF6FF400440B089044351
:104D7000AC8201A8FFF774FC1F48874202D1DDF81E
:104D800010A001E0DDF80CA0A88900F4004040B1BB
:104D90000AEBCA0000EB0A1031684900B0FBF1F8D9
:104DA00007E00AEBCA0000EB0A1031688900B0FB8B
:104DB000F1F86420B8FBF0F004012009642101FB44
:104DC0001089A88900F4004040B1322000EBC900EE
:104DD000B0FBF1F000F00700044308E0322000EBE4
:104DE00009106421B0FBF1F000F00F0004432C81A6
:104DF00006B0BDE8F087000000380140C1F30802AA
:104E00008280704700BFFEE710B586B004460121DE
:104E10000420FFF715FC01218803FFF711FC18207F
:104E20008DF817004FF40070ADF8140003208DF8D2
:104E3000160005A91E48FDF757FD04208DF8170040
:104E40000002ADF8140003208DF8160005A91848DB
:104E5000FDF74AFD01940020ADF810000C20ADF8DC
:104E60000E000020ADF80C00ADF80A00ADF8080007
:104E700001A91048FFF756FF01210E48FFF7E9FE90
:104E8000012240F225510B48FFF726FF25208DF81F
:104E9000000001208DF8030000208DF801000220A1
:104EA0008DF802006846FEF7FBFB06B010BD00005F
:104EB000000801400038014010B586B004460121C9
:104EC0000420FFF7BDFB01214804FFF7A9FB1820D0
:104ED0008DF817000420ADF8140003208DF816009B
:104EE00005A91E48FDF700FD04208DF817000820D5
:104EF000ADF8140003208DF8160005A91748FDF73A
:104F0000F3FC01940020ADF810000C20ADF80E0069
:104F10000020ADF80C00ADF80A00ADF8080001A9BA
:104F20000F48FFF7FFFE01210D48FFF792FE012217
:104F300040F225510A48FFF7CFFE26208DF80000E9
:104F400001208DF8030000208DF801008DF802008B
:104F50006846FEF7A5FB06B010BD00000008014042
:104F6000004400400FB430B5CBB0054601AC50A8AA
:104F700000904FF4947101A8009B4F9AFBF720FA20
:104F8000002000900BE014F8011B2846FFF736FFC5
:104F900000BF40212846FFF768FE0028F9D020789E
:104FA0000028F0D14BB030BC5DF814FB2DE9F04186
:104FB00007460C46154600260DE014F8011B38463E
:104FC000FFF71CFF00BF40213846FFF74EFE0028C8
:104FD000F9D0701C86B2AE42EFDBBDE8F08149002B
:104FE00050EAC12018BF04204A0D18BF40F001004C
:104FF00040F2FF72B2EB515F08BF40F0020001289F
:1050000008BF052070472DE9F0414F1E00EBC70196
:105010000446D1E9000115461E4637F006020DD0C0
:105020002A46334602F09CF87F1E04EBC703D3E9FF
:10503000002301F0FFFD37F00602F1D1022F25D049
:10504000042F13D0062F18BFBDE8F0812A4633463F
:1050500002F086F8D4E90A2301F0ECFD2A46334633
:1050600002F07EF8D4E9082301F0E4FD2A46334635
:1050700002F076F8D4E9062301F0DCFD2A46334637
:1050800002F06EF8D4E9042301F0D4FD2A46334639
:1050900002F066F8D4E9022301F0CCFD2A4633463B
:1050A00002F05EF8D4E90023BDE8F04101F0C2BD92
:1050B000002213461046014901F078BE0000F03F7F
:1050C00001F0B8BD002213461046114601F06EBE35
:1050D00040F2013200204FF0E04102F093BD0000A9
:1050E000024A0020110702F08DBD000001FDFFFF04
:1050F00030380A2801D20120704700207047000094
:1051000070B5044622E02568A08900F4807020B9BB
:10511000A06810B1A068FFF7F3FFA08900F48070C9
:1051200028B9206918B10B49206909688847A08906
:1051300000F4007028B9206A18B10649206A09688D
:10514000884720460349096888472C46002CDAD155
:1051500070BD00005000002001480068704700004A
:105160004800002070B505460E46AC6800E0246893
:105170002CB13146206A00F04FF80028F7D12046C4
:1051800070BD000010B5282005490968884704460D
:105190001CB128212046FBF75EFC204610BD000014
:1051A0004C00002010B5044600221146204600F0B5
:1051B00001F810BD2DE9F04780460D461646002443
:1051C000FFF7E0FF07460020124908600FB9BDE86D
:1051D000F087404601F0D2FC81464946384600F04F
:1051E00083FF044624B93846FFF78AFF0020EEE724
:1051F00066B1204601F0C2FC0446207830B1384642
:10520000FFF77EFF034804600020E0E705B12C6053
:105210003846DCE74800002070B504460D462CB93E
:10522000AC4201D0012070BD0020FCE70DB9012087
:10523000F9E705E0207808B90020F4E7641C6D1C4C
:105240002078FBF7AFF806462878FBF7ABF88642E4
:10525000F0D02078FBF7A6F806462878FBF7A2F8EE
:10526000301AE0E710B56FF00400FFF7FFFA0A48C4
:1052700000680A49B0FBF1F0094908700846007857
:1052800000EB4001C1EBC0104FF6FF7101EAC00016
:105290000449088010BD00001400002000127A00AC
:1052A0003C0000203E0000200146114A12884A437B
:1052B0004FF0E0235A6100229A611A46126942F0C7
:1052C00001021A6100BF4FF0E022106900F00102F4
:1052D0001AB100F48032002AF5D04FF0E0221269B2
:1052E00022F001024FF0E0231A6100229A61704718
:1052F0003E0000200146114A12784A434FF0E02355
:105300005A6100229A611A46126942F001021A613A
:1053100000BF4FF0E022106900F001021AB100F462
:105320008032002AF5D04FF0E022126922F001020B
:105330004FF0E0231A6100229A6170473C00002080
:1053400010B580200949086000F020F84020074986
:10535000091F086000F01AF840200449086000F0B6
:1053600015F880200149091F086010BD1414014080
:1053700070B5044600F072F8204600F045F800F0E1
:1053800095F8054600F082F8284670BD002001E03F
:10539000411CC8B20A28FBDB7047000010B5802012
:1053A00007490860FFF7F2FF402005490860FFF752
:1053B000EDFF40200249091D0860FFF7E7FF10BD1F
:1053C0001014014070B50024002516E06006040E9C
:1053D00040200C490860FFF7D9FF0A4808380068E8
:1053E00000F0800008B1601CC4B240200549091DCE
:1053F0000860FFF7CBFF681CC5B2082DE6DB20462E
:1054000070BD00001014014070B50446002520E076
:1054100004F0800018B180200F49086003E080206C
:105420000D49091D0860FFF7B1FF40200A490860D7
:10543000FFF7ACFF40200849091D0860072D02D185
:105440008020091F08606006040EFFF79FFF681C9C
:10545000C5B2082DDCDB70BD1014014010B58020F2
:105460000949086040200860FFF790FF8020064946
:10547000091D0860FFF78AFF40200349091D0860E5
:10548000FFF784FF10BD00001014014010B580200C
:10549000054908604020091F0860FFF777FF80205A
:1054A0000149091F086010BD1414014010B5802087
:1054B0000C490860FFF76AFF40200A490860FFF7BF
:1054C00065FF08480838006800F0800008B1012432
:1054D00000E0002440200349091D0860FFF756FF43
:1054E000204610BD1014014086B0002400274FF460
:1054F000E130FFF789FCC5A0FCF7BAFDC4A0FCF7BA
:10550000B7FDFFF7AFFEC7A0FCF7B2FDFEF7A2F9AB
:105510000020FEF73FF90020FEF74AF9FEF702F9F6
:10552000C6A0FCF7A5FDCAA0FEF760FA4FF4A06084
:10553000FEF7EEF8C9A0FCF79BFDC5A0FEF756FAF2
:10554000FDF7F2FACBA0FCF793FDCFA0FEF74EFAE1
:10555000FDF7CCFACFA0FCF78BFDD3A0FEF746FAFF
:10556000FDF70AF9D1A0FCF783FDD6A0FEF73EFABD
:10557000FCF71CFDD5A0FCF77BFDD9A0FEF736FAA1
:10558000FCF749FDD8A0FCF773FDDCA0FEF72EFA6E
:10559000FCF7D6FDDBA0FCF76BFDDFA0FEF726FADB
:1055A0004FF4E130FFF788FCDDA0FCF761FDE1A0DE
:1055B000FEF71CFAE1A0FCF75BFD4FF47A70FFF7F1
:1055C00073FEE3A0FCF754FDE848007858BBFEF7F3
:1055D000A9F801201023E6A2002100900846FEF75A
:1055E000EDFB012010230822002100902020FEF76F
:1055F00063FB012010230922002100903020FEF7D8
:105600005BFB012010230A22002100904020FEF7BE
:1056100053FB01201023D8A2002100905020FEF758
:10562000CDFBFEF7AFF9FCF76FFEFEF77BF801202C
:1056300010230422002100900846FEF73DFB0120C4
:1056400010230522002100901846FEF735FB0120AB
:1056500010230622002100902020FEF72DFB0120C0
:1056600010230822002100903020FEF725FB0120A6
:1056700010230922002100904020FEF71DFB01208D
:1056800010230A22002100905020FEF715FB012074
:105690001023B9A2002100906020FEF78FFBFEF7D7
:1056A00071F903E04FF4FA70FFF7FEFDFEF7C8FB57
:1056B0000028F7D1FEF736F841F61F4141F2873056
:1056C000FFF790F941F61F4140F6C310FFF7D8F9F4
:1056D0000020AA4908600121A948FEF769FF94E06B
:1056E000282094FBF0F100FB1140002847D1A54B86
:1056F000A54AA649A648FCF778FD4620FFF738FEE4
:1057000018B9FDF737FAA34908602021A248FDF730
:1057100076F9A2490870A24800780A2814D19C485A
:10572000007850280DDA984800781E2809DA9D493B
:105730009848006802F032F903D200209A490870B4
:1057400002E0012098490870954800780A2804DA98
:1057500093480078401C924908708E48006802F017
:105760000FF8CDE902018748007800908648037859
:1057700086480278864801788CA0FCF779FC601C8A
:1057800080B20446C82835DB20218348FDF737F96D
:105790008249087092A0FCF76BFC9AA0FCF768FCA9
:1057A0007C48006801F0ECFF05460E467E48007814
:1057B0007A49097809B9012100E00021CDE90256B2
:1057C000CDE904106F4800786F490978CDE90010E1
:1057D0006E4803786E48027892A1A148FAF70AFE53
:1057E0009F49A048FEF73EFC9FA0FCF741FC002427
:1057F000FCF754FD0320FCF75FFD074617B1384660
:10580000FEF76EFC0A20FFF74FFD69E70D0A000066
:105810005541525431B3F5CABCBBAF0909095B4FBE
:105820004B5D0000D1D3CAB1BAAFCAFDB3F5CABC53
:10583000BBAF0909095B4F4B5D0000004F4C45446D
:1058400031B3F5CABCBBAF0909095B4F4B5D000022
:105850004F4C4544205B4F4B5D000000D6D0B6CF87
:10586000BCB6B1F0B3F5CABCBBAF0909095B4F4B7D
:105870005D0000004C4544B3F5CABCBBAF09090943
:105880005B4F4B5D000000004C4544205B4F4B5D7F
:1058900000000000B0B4BCFCB3F5CABCBBAF090942
:1058A000095B4F4B5D0000004B657900CDE2B2BF54
:1058B000D6D0B6CFB3F5CABCBBAF0909095B4F4B15
:1058C0005D0000004558495400000000B7E4C3F9EA
:1058D000C6F7B3F5CABCBBAF0909095B4F4B5D0006
:1058E0004265657000000000424831373530B3F53D
:1058F000CABCBBAF0909095B4F4B5D004248313759
:10590000353000004448543131B3F5CABCBBAF094F
:1059100009095B4F4B5D00004448543131000000E1
:105920005541525432B3F5CABCBBAF0909095B4FAC
:105930004B5D00005561727432000000D3B2BCFEB2
:10594000B3F5CABCBBAF0909095B4F4B5D00000052
:10595000B3F5CABCBBAF4553503832363620574931
:105960004649C4A3BFE92E2E2E00000012000020DD
:1059700057694669000000002E2E2E0094812142B6
:105980000C00002003000020020000200100002085
:105990000000002004000020001801400800002042
:1059A0001100002000007A4410000020207C20CA52
:1059B000AAB6C83A25642E2564202525207C20CE51
:1059C000C2B6C83A25642E25642043207C20B9E263
:1059D000D5D5B6C83A252E3166206C782000000057
:1059E0003E3E3E3E3E3E2070757368206D6173738F
:1059F00067652073746172743A203E3E3E3E3E3EBF
:105A000000000000B7A2B2BCCAFDBEDD202D2D2DC6
:105A10002D2D204F6E654E65745F5075626C6973F5
:105A2000680000007B2248756D223A25642E2564AB
:105A30002C2254656D70223A25642E25642C224C4C
:105A400069676874223A252E31662C224C656422DF
:105A50003A25642C2242656570223A25647D000057
:105A600054000020907C00083E3E3E3E3E3E2070AA
:105A7000757368206D617373676520656E64203A85
:105A800020203E3E3E3E3E3E000000002DE9F04715
:105A900005460C4620785B2804D026480460002088
:105AA000BDE8F0870520E860601C01F067F8044657
:105AB00020785D2801D1601CF2E7FFF763FB064602
:105AC000A860A86808B90020EAE7204601F056F867
:105AD00080464146304600F007FB074601F04EF88D
